:100000000C94D3130C9472190C949F190C94FB1339
:100010000C94FB130C94FB130C94FB130C943B1EDD
:100020000C94FB130C94FB130C94FB130C94FB1318
:100030000C94FB130C94FB130C94FB130C94FB1308
:100040000C94CC190C94FB130C94251C0C94FB13EE
:100050000C94FB130C94FB130C94FB130C94FB13E8
:100060000C94F51E0C94FB130C0000000000000023
:100070000000000000000000000000000000000080
:100080000000000000000000000000000000000070
:100090000000000000000000000000000000000060
:1000A000000000000000000000000000000005004B
:1000B00000000000007CC001FECF017CC0010000F8
:1000C0000000000000000000000000000000000030
:1000D0000000000000000000000000000000000020
:1000E0000000000000000000000000000000000010
:1000F000000000000B0000000000003C0000FE01BA
:10010000003C00000000000000000000003C000077
:10011000FE01003E000000000000000000000000A2
:1001200000000000000000000000000000000000CF
:10013000000000000000000000000CC00C00C0CC5B
:1001400001C0FE01F03F00FE0D00CE0C00C0CC014E
:10015000C0FE01F03F00FE0D00CE0C00C00C000000
:10016000000000000000000000000000000000008F
:10017000000000000000000000000000000000007F
:100180000C00000078F000FCC001FC8101C60301F6
:10019000820301FFFF03020F01069E010EFE003CD9
:1001A000FC000078000000000000000000000000DB
:1001B000000000000000000000000000000000003F
:1001C00000000000000017000000F80000FC010023
:1001D000FE0300020200020200FE0301FC8101F89E
:1001E000E000007800001C00000700800300E00031
:1001F000007800001C7C0006FE0002FF01000101E7
:1002000000010100FF0100FE00007C00130000005F
:1002100000780000FC0000FE0100E301F8C101FCD1
:100220008101FE8701828F00829F00467C007E78DC
:10023000001CF00080F00180CF01808301808101EB
:1002400080C000004000000000000000000000002E
:100250000000050000000000003C0000FE01003C22
:10026000000000000000000000000000000000008E
:10027000000000000000000000000000000000007E
:10028000000000000000000000000000000000006E
:10029000000000000000000008000000007F00C017
:1002A000FF01F0FF0778000F0C0018040010020097
:1002B000200000000000000000000000000000001E
:1002C000000000000000000000000000000000002E
:1002D0000000000000000000000000000000070215
:1002E00000200400100C001878000FF0FF07C0FF7A
:1002F00001007F000000000000000000000000007E
:1003000000000000000000000000000000000000ED
:1003100000000000000000000000000000000000DD
:10032000000000000A000000000000000000B00112
:1003300000B00100EC00007C0000EC0000B0010007
:10034000B0010000000000000000000000000000FC
:10035000000000000000000000000000000000009D
:10036000000000000000000000000E80010080017D
:1003700000800100800100800100800100FE7F00FC
:10038000FE7F00800100800100800100800100806C
:1003900001008001000000000000000000000000DB
:1003A000000000000000000000000000000000004D
:1003B0000400000000C01100C00F00800700000012
:1003C000000000000000000000000000000000002D
:1003D000000000000000000000000000000000001D
:1003E000000000000000000000000000000000000D
:1003F00000000000000007001800001800001800AE
:10040000001800001800001800001800000000008C
:1004100000000000000000000000000000000000DC
:1004200000000000000000000000000000000000CC
:1004300000000000000000000000000004000000B8
:1004400000C00100C00100C0010000000000000069
:10045000000000000000000000000000000000009C
:10046000000000000000000000000000000000008C
:10047000000000000000000000000000000000007C
:1004800000000700800100F00100FE00C00F00F82E
:1004900001003E0000060000000000000000000017
:1004A000000000000000000000000000000000004C
:1004B000000000000000000000000000000000003C
:1004C00000000000000000000B000000E01F00F82A
:1004D0007F00FCFF0006800102000102000106808F
:1004E00001FCFF00F87F00E01F000000000000009A
:1004F00000000000000000000000000000000000FC
:1005000000000000000000000000000000000900E2
:100510000000100001180001180001FCFF01FCFFA1
:1005200001FEFF01000001000001000000000000CA
:1005300000000000000000000000000000000000BB
:1005400000000000000000000000000000000000AB
:10055000000000000A0000011880010CC0010EF02C
:10056000010ED8011ECE01FEC701FCC10178C001F9
:10057000006000000000000000000000000000001B
:10058000000000000000000000000000000000006B
:10059000000000000000000000000A00E00008E089
:1005A000010CC00106C001868001CE8101FEC3009E
:1005B000FCFF009C7F00001E000000000000000007
:1005C000000000000000000000000000000000002B
:1005D000000000000000000000000000000000001B
:1005E0000B000000001C00001A00001900C01800D9
:1005F000201800101800F8FF01FEFF01FEFF0100A7
:1006000018000000000000000000000000000000D2
:1006100000000000000000000000000000000000DA
:100620000000000000000B00000080C000F0C001CE
:10063000ECC001EE8001EE0101CE0101CE03008E7F
:1006400087008E7F00023E000000000000000000D6
:10065000000000000000000000000000000000009A
:100660000000000000000000000000000B0000007F
:10067000001F00E07F00F0FF00F8C101BC00019CFA
:1006800000018C810186FF0002FF00023E00000095
:10069000000000000000000000000000000000005A
:1006A000000000000000000000000000000000004A
:1006B00000000C0000003000001E00000E00000EC4
:1006C00000000EC0010EF8010E3F00CE0700FE0034
:1006D000003E0000060000000000000000000000D6
:1006E000000000000000000000000000000000000A
:1006F00000000000000000000B000000787800FC03
:10070000FC00FCFF01E68301C20301820701868F22
:1007100001FEFF007CFE00387800000000000000B1
:1007200000000000000000000000000000000000C9
:1007300000000000000000000000000000000B00AE
:100740000000F00101FC0301FC870106870002C4E0
:10075000000264000E7C00FC3F00F81F00E0030074
:100760000000000000000000000000000000000089
:100770000000000000000000000000000000000079
:100780000000000005000000000000C0C101C0C161
:1007900001C0C101000000000000000000000000D6
:1007A0000000000000000000000000000000000049
:1007B0000000000000000000000000000000000039
:1007C0000000000000000000000005000000000024
:1007D00000C0C111C0C10FC08107000000000000AF
:1007E0000000000000000000000000000000000009
:1007F00000000000000000000000000000000000F9
:1008000000000000000000000000000000000000E8
:100810000D000200000700000700000700800F0025
:10082000800D00801D00C01800C0180060300060FE
:100830003000603000306000000000000000000068
:1008400000000000000000000000000000000000A8
:100850000000000000000D000000C00C00C00C00F3
:10086000C00C00C00C00C00C00C00C00C00C00C0CC
:100870000C00C00C00C00C00C00C00C00C0000003C
:100880000000000000000000000000000000000068
:100890000000000000000000000000000E0000004A
:1008A000306000603000603000603000C01800C070
:1008B0001800801D00800D00800F00000700000759
:1008C000000007000002000000000000000000001F
:1008D0000000000000000000000000000000000018
:1008E00000000B0000000000003800003C00003E4B
:1008F000000002C00102CE0186C301FE0100FC001F
:10090000007800000000000000000000000000006F
:1009100000000000000000000000000000000000D7
:10092000000000000000000016000000007E00C073
:10093000810160000610000C08F0080CFE1104FF95
:1009400011848721C2C12042602042F82082FF2109
:10095000C2FF21C21F21C603110480100C80081899
:100960004008303004C00F03008000000000110078
:10097000000100000100800100E001001C010013E3
:1009800000C010003810007E1000FE1100F01F01A2
:10099000C03F0100FE0100F80100C001008001001D
:1009A0000001000000000000000000000000000046
:1009B000000000000F000000020001020001FEFF25
:1009C00001FEFF01FEFF010201010201010201011E
:1009D000020101868301FEE701FCFE0078FE0000B3
:1009E00038000000000000000000000000000000CF
:1009F000000000000000000000000F000000C00F19
:100A000000F03F00F87F007CF8000CC00006800179
:100A10000200010200010200010200010600010CB7
:100A200080001C80007E40000000000000000000EC
:100A300000000000000000000000000000000000B6
:100A400010000000020001020001FEFF01FEFF0194
:100A5000FEFF010200010200010200010200010686
:100A600080010CC0007CF800F87F00F03F00C00F50
:100A70000000000000000000000000000000000076
:100A80000000000000000F00000002000102000151
:100A9000FEFF01FEFF01FEFF01020101020101C292
:100AA0000701F21F010200010600010E80013EC095
:100AB00001006000000000000000000000000000D5
:100AC0000000000000000000000000000E00000018
:100AD000020001020001FEFF01FEFF01FEFF010214
:100AE0000101020101C20700F21F0002000006001E
:100AF000000E00003E0000000000000000000000AA
:100B000000000000000000000000000000000000E5
:100B1000000012000000C00F00F03F00F87F007CD2
:100B2000F8000CC0000680010280010200010200F2
:100B3000010200010604010404010CFC003CFC005D
:100B40007EFC000004000004000000000000000023
:100B5000000000000000000012000000020001027E
:100B60000001FEFF01FEFF01FEFF01020101020183
:100B70000100010000010000010002010102010169
:100B8000FEFF01FEFF01FEFF010200010200010065
:100B9000000000000000000000000000000008004D
:100BA0000000020001020001FEFF01FEFF01FEFF46
:100BB000010200010200010000000000000000002E
:100BC0000000000000000000000000000000000025
:100BD0000000000000000000000000000000000015
:100BE000000000000C00600000F000003001000078
:100BF00001000001020001028001FEFF00FEFF0073
:100C0000FE7F000200000200000000000000000063
:100C100000000000000000000000000000000000D4
:100C200000000000000000000000120000000200B0
:100C300001020001FEFF01FEFF01FEFF01020201B1
:100C4000020301800F00C01F00403E0120FC011282
:100C5000F0010EE0010EC001068001020001020059
:100C60000100000000000000000000000000000083
:100C70000F000000020001020001FEFF01FEFF0163
:100C8000FEFF01020001020001000001000001005E
:100C9000000100800100800100E001003800000038
:100CA0000000000000000000000000000000000044
:100CB0000000000000001600000002000102000118
:100CC000FEFF010E00013E0001FE0100F80700C01A
:100CD0003F0000FE0000F801006000001800000363
:100CE00000C00000300001060001FEFF01FEFF0110
:100CF000FEFF0102000102000100000010000000E0
:100D0000020001028001FEFF010E80011E00017C35
:100D10000000F80000F00300C00700801F00023E42
:100D200000027C00FEFF0102000002000000000043
:100D300000000000000000000000000000000000B3
:100D4000000012000000C00F00F03F00F87F007CA0
:100D5000F8000CC000068001020001020001020040
:100D6000010200010200010680010CC0007CF800B5
:100D7000F87F00F03F00C00F0000000000000000FE
:100D800000000000000000000E0000000200010250
:100D90000001FEFF01FEFF01FEFF0102020102024F
:100DA00001020200060300060300FC0100FC010032
:100DB000F80000000000000000000000000000003B
:100DC0000000000000000000000000000000120011
:100DD0000000C00F00F03F00F87F007CF8000CC05E
:100DE0000006800102000302000702000F02000F4C
:100DF00002001F06801D0CC0197CF810F87F10F04F
:100E00003F10C00F000000000000000000000000C4
:100E10000000000012000000020001020001FEFFBD
:100E200001FEFF01FEFF01020201020201020E00AB
:100E3000021E00063F008EFB00FCF101FCC00170A9
:100E4000800100000100000100000100000000001E
:100E5000000000000000000000000C00000078F816
:100E600001FCE000FEC100E68300C203018207012D
:100E7000820701048F010CFE003EFE0000380000D6
:100E80000000000000000000000000000000000062
:100E90000000000000000000000000000000000052
:100EA0000E0000000E00000600000200000200011B
:100EB000020001FEFF01FEFF01FEFF010200010230
:100EC00000010200000600000E000000000000000B
:100ED0000000000000000000000000000000000012
:100EE00000000000000011000000020000020000ED
:100EF000FE3F00FEFF00FEFF000280010200010035
:100F00000001000001000001000001028000024019
:100F100000FE3F0002000002000000000000000090
:100F200000000000000000000000000011020000AE
:100F30000200000600003E0000FE0000FE0700E286
:100F40003F0000FF0000F8010060000018000007EB
:100F500000C200003600000E000006000002000083
:100F60000000000000000000000000000000000081
:100F70000000170200000600001E0000FE0000FE38
:100F80000700E21F0080FF0000FC01007000021C4F
:100F9000008603007E00007E0000FE0300F21F00BA
:100FA00082FF0000FC01007000000E00C201003E44
:100FB000000006000002000010020001020001060D
:100FC00080011EC0013E2001FE1001F20D00C0078D
:100FD00000800F00803F01407C0132F8010EE001EB
:100FE00006C00102800102000100000000000000B4
:100FF00000000000000000000000000000001002DF
:1010000000000200000E00001E00007E0000FA0139
:1010100001E20301C0FF0100FF0100FE0100030126
:10102000C200013200000E000006000002000000B5
:1010300000000000000000000000000000000000B0
:10104000000000000F0000013E80010EE00106F0EC
:1010500001027C01023E01820F01C20701F201017F
:10106000FA00013E00011E800106C00102E00100FD
:101070003800000000000000000000000000000038
:101080000000000000000000000007000000000059
:1010900000FEFF3FFEFF3FFEFF3F02002002002058
:1010A0000000000000000000000000000000000040
:1010B0000000000000000000000000000000000030
:1010C0000000000000000000000000000000000020
:1010D000070600003E0000F80100C00F00007E007F
:1010E00000F001008001000000000000000000008E
:1010F00000000000000000000000000000000000F0
:1011000000000000000000000000000000000000DF
:101110000000000000000600000002002002002085
:10112000FEFF3FFEFF3FFEFF3F000000000000000B
:1011300000000000000000000000000000000000AF
:10114000000000000000000000000000000000009F
:101150000000000000000000000000000D00000082
:10116000000000000100800100E000003800001CC9
:1011700000000600001C0000380000E000008001B4
:10118000000001000000000000000000000000005E
:10119000000000000000000000000000000000004F
:1011A00000000C0000300000300000300000300073
:1011B000003000003000003000003000003000003F
:1011C000300000300000300000000000000000008F
:1011D000000000000000000000000000000000000F
:1011E0000000000000000000040000000400000CEB
:1011F00000001000000000000000000000000000DF
:1012000000000000000000000000000000000000DE
:1012100000000000000000000000000000000000CE
:1012200000000000000000000000000000000B00B3
:10123000000000E30080F301C0F301409801408802
:1012400000404400C0FF0080FF0180FF01008000DB
:10125000000000000000000000000000000000008E
:10126000000000000000000000000000000000007E
:10127000000000000C000000020000FEFF01FEFF65
:1012800000FEFF00808001400001400001C080019D
:10129000C0FF00807F00003E000000000000000052
:1012A000000000000000000000000000000000003E
:1012B000000000000000000000000A000000003EE6
:1012C0000000FF0080FF00C0E00140C0014080013D
:1012D000C08101C0C100804100000000000000008A
:1012E00000000000000000000000000000000000FE
:1012F00000000000000000000000000000000000EE
:101300000C000000003E0080FF0080FF01C0800153
:10131000400001400001828000FEFF01FEFF01FE4F
:10132000FF0000800000000000000000000000003E
:1013300000000000000000000000000000000000AD
:101340000000000000000A000000003E0000FF0056
:1013500080FF00C0C401408401C08401C0870080B8
:10136000C700002600000000000000000000000090
:10137000000000000000000000000000000000006D
:101380000000000000000000000000000940000014
:10139000400001F8FF01FCFF01FEFF014200014E89
:1013A00000000E000004000000000000000000002B
:1013B000000000000000000000000000000000002D
:1013C000000000000000000000000000000000001D
:1013D00000000C000000008F1B80DF3F803F27C013
:1013E0003027402027402027C03027C01F27C01F9C
:1013F00037400F1E40000E000000000000000000FB
:1014000000000000000000000000000000000000DC
:1014100000000000000000000C000000020001FEBF
:10142000FF01FEFF01FEFF01000101800000C0007E
:1014300001C0FF01C0FF0180FF01000001000000AA
:10144000000000000000000000000000000000009C
:101450000000000000000000000000000000060086
:101460000000400001CEFF01CEFF01CEFF010000D1
:10147000010000000000000000000000000000006B
:10148000000000000000000000000000000000005C
:10149000000000000000000000000000000000004C
:1014A0000000000006000018000038400020CEFFB9
:1014B0003FCEFF3FCEFF0F00000000000000000005
:1014C000000000000000000000000000000000001C
:1014D000000000000000000000000000000000000C
:1014E000000000000000000000000D0000000200ED
:1014F00001FEFF01FEFF01FEFF01000801001C00CC
:10150000003E0040F901C0E00140C0014080010000
:1015100000010000000000000000000000000000CA
:1015200000000000000000000000000000000000BB
:1015300006000000020001FEFF01FEFF01FEFF01A8
:10154000000001000000000000000000000000009A
:10155000000000000000000000000000000000008B
:10156000000000000000000000000000000000007B
:1015700000000000000012000000400001C0FF0158
:10158000C0FF01C0FF01000101800000C00001C0D8
:10159000FF01C0FF0180FF01000101800000C000C9
:1015A00001C0FF01C0FF0180FF0100000100000039
:1015B0000000000000000000000000000C0000001F
:1015C000400001C0FF01C0FF01C0FF010001018018
:1015D0000000C00001C0FF01C0FF0180FF0100004A
:1015E00001000000000000000000000000000000FA
:1015F00000000000000000000000000000000000EB
:1016000000000B000000003E0000FF0080FF00C053
:101610008001400001400001C0800180FF0080FF88
:1016200000003E000000000000000000000000007C
:1016300000000000000000000000000000000000AA
:1016400000000000000000000C000000400020C06E
:10165000FF3FC0FF3FC0FF3F8080204000014000AF
:1016600001C08001C0FF0180FF00003E00000000BB
:10167000000000000000000000000000000000006A
:1016800000000000000000000000000000000C004E
:101690000000003E0000FF0080FF01C0800140000C
:1016A00001400001C0802080FF3F80FF3FC0FF3F1E
:1016B000000020000000000000000000000000000A
:1016C000000000000000000000000000000000001A
:1016D000000000000A000000400001C0FF01C0FF40
:1016E00001C0FF01000101800000C00100C0010035
:1016F000800000000000000000000000000000006A
:1017000000000000000000000000000000000000D9
:10171000000000000000000000000800000080C77A
:1017200001C08F00400E01401C01803C01C0F90146
:1017300000F00000000000000000000000000000B9
:101740000000000000000000000000000000000099
:101750000000000000000000000000000000000089
:1017600008000000400000E0FF00F0FF01FCFF0166
:1017700040800140800000400000000000000000A8
:101780000000000000000000000000000000000059
:101790000000000000000000000000000000000049
:1017A0000000000000000C000000400000C0FF002E
:1017B000C0FF01C0FF01008001008000404000C068
:1017C000FF01C0FF01C0FF01000001000000000098
:1017D0000000000000000000000000000000000009
:1017E0000000000000000000000000000B400000AE
:1017F000C00000C00700C03F00C0FF0000FC0100A7
:101800006000001800400600C00100400000000019
:1018100000000000000000000000000000000000C8
:1018200000000000000000000000000000000000B8
:10183000000011400000C00000C00300C01F00C035
:10184000FF0000FC01407000400E00C00300C01FFC
:1018500000C0FF0040FC0100F000401C00C003007D
:10186000C000004000000000000000000000000078
:1018700000000000000000000B400001C00001C09B
:101880008101C0C701C03F00407F0100FE0140F15F
:1018900001C0C001408001400001000000000000C4
:1018A0000000000000000000000000000000000038
:1018B00000000000000000000000000000000C40DC
:1018C0000018C00138C00738C01F20407F1800FC36
:1018D0000700F001007000400C00C00300C00000D1
:1018E00040000000000000000000000000000000B8
:1018F00000000000000000000000000000000000E8
:101900000000000008000001C0C10140F00140FCDF
:1019100001403F01C00F01C08301C0E00100000091
:1019200000000000000000000000000000000000B7
:1019300000000000000000000000000000000000A7
:101940000000000000000000000008000000000887
:101950000000080078140FFCF71FFEE33FC6C131FA
:101960000200200000000000000000000000000055
:101970000000000000000000000000000000000067
:101980000000000000000000000000000000000057
:1019900004000000000000FEFF3FFEFF3F000000CB
:1019A0000000000000000000000000000000000037
:1019B0000000000000000000000000000000000027
:1019C0000000000000000000000000000000000017
:1019D00000000000000008000000020020C6C13125
:1019E000FEE33FFCF71F78140F000800000800001A
:1019F00000000000000000000000000000000000E7
:101A000000000000000000000000000000000000D6
:101A10000000000000000000000000000C000C00AE
:101A200000070000030000030000030000060000A0
:101A30000600000C00000C00000C00000E0000036B
:101A40000000000000000000000000000000000096
:101A50000000000000000000000000000000000086
:101A6000000010000000000000000000FEFF010266
:101A70000001020001020001020001020001020057
:101A80000102000102000102000102000102000146
:101A9000FEFF010000000000000000000000000048
:101AA0000000000000000000100003000003000020
:101AB0000300000300000300000300000300FEFF1A
:101AC00001FEFF010003000003000003000003000B
:101AD00000030000030000030006000000000003F4
:101AE00000808700806700803F00001F000000002A
:101AF00000000000000000000000000000000000E6
:101B0000000000000000000000000900000000309C
:101B100000003000003000003000003000003000D5
:101B20000030000030000000000000000000000055
:101B300000000000000000000000000500000000A0
:101B40000003008007008007000003000000000081
:101B50000000000000000000000000000000000085
:101B60000000000000000000000000000800000667
:101B700000C00700F803003F00E00700FC00001F62
:101B80000000030000000000000000000000000052
:101B9000000000000000000000000000000D000038
:101BA00000E03F00F8FF00FCFF01FEFF030300061A
:101BB000010004010004030006FEFF03FCFF01F81E
:101BC000FF00E03F000000000000000000000C00EB
:101BD00000000000000800040C00040C0006FEFFDA
:101BE00007FEFF07FFFF07FFFF07000006000004D6
:101BF0000000040000000000000000000000000DD4
:101C00000000041800060E000706800707C007073B
:101C1000A0070F98071F8E07FF8707FE8307FE8127
:101C20000778C00700E0000000000000000000008E
:101C30000D00800308C00304C00706800782000768
:101C4000830106C30106E70306FF0F03BFFF039EE0
:101C5000FF010CFF00003E0000000000000000003B
:101C6000000E000000007800007400007200807117
:101C700000407000207000107000FCFF07FEFF079E
:101C8000FFFF07FFFF07007000007000000000006A
:101C900000000D000000000203C08303F08307CEA4
:101CA0000307CF0306CF07068F07048F07048F0FA4
:101CB000000F1F020FFE01037C0000000000000067
:101CC0000000000E000000007E00C0FF01E0FF03E6
:101CD000F0FF03F880079C00068C00048601048254
:101CE000030683FF0303FF0301FE01017C000000E4
:101CF000000000000E0000003000001F00000F0078
:101D0000000F00000F00040F80070FE0030F7C009E
:101D10008F0F00FF03007F00000F00000100000094
:101D200000000000000D00000078F000FCF803FE49
:101D3000FD03FF0F06E30704C10704810F04811FA1
:101D400006C3FF07FEFE037EFC013CF80000000016
:101D50000000000000000E000000F00104FC03047D
:101D6000FE0706FE0F06030E02010C0301880303A3
:101D7000C8010FF800FEFF00FC3F00F81F00E0075D
:101D8000000000000000000600000000000000004D
:101D9000000000000000000000000000060000003D
:101DA0000000000000FE0DFE0D000000000000001D
:101DB0000008000000001F001F00000000001F00BE
:101DC0001F00000000000A0001100FF00FFE011EAE
:101DD00001100FF00FFE011E0110000900003C066B
:101DE0003E0E660CFF1F660CC60CCC078803000075
:101DF0000A3C00420842063C01C000200090074C0B
:101E000008420880070A00008007FC0F7E0CE60CE1
:101E1000BE0F1C0F0007C00FC00C06000000000022
:101E20000000001F001F000000000000000000086C
:101E3000000000000000F007FC1F0E3803600140A6
:101E4000000000000700000000014003600E38FCA5
:101E50001FF007000000000000090000040024003B
:101E60007C001F001F007C0024000400000009000B
:101E700000C000C000C000F807F807C000C000C0E4
:101E800000000006000000000060007C001C000450
:101E9000000000000000000007000000000000C07B
:101EA00000C000C000C000000000000000060000EC
:101EB000000000000000000C000C0000000000000A
:101EC00000000900000008000E8007E00178001EF5
:101ED00000070001000000090000F803FC070E0ED7
:101EE000660C660C0E0EFC07F803000009000018D3
:101EF0000C180C0C0CFE0FFE0F000C000C000C005C
:101F000000090000080E0C0F860D860DC60C660C2D
:101F10003C0C1C0C000009000008020C06060C66B4
:101F20000C660CE60CFC079C030000090000800313
:101F3000C003700338030E03FE0FFE0F0003000002
:101F40000900007E027E06760C360C360C760EE614
:101F500007C0030000090000F001FC074E0E660CEC
:101F6000660CE60ECC078803000009000006000698
:101F700000060E860FE60176001E000E0000000926
:101F800000009C03FC07660C660C660C660CFE07E2
:101F90009C03000009000038027C06EE0CC60CC64B
:101FA0000C4E0EFC07F801000006000000000000C7
:101FB0000000180C180C00000000000000000600D3
:101FC0000000000060187C181C00040000000000E5
:101FD000000000090000E000F001B001B0011803AA
:101FE000180318030C06000009000030033003300A
:101FF00003300330033003300330030000090000D6
:102000000C06180318031803B001B001F001E0003A
:10201000000009000018001C000E00060DC60DE6A9
:10202000007C00380000000AE0071C18C62733486F
:1020300009480946F14F1A280624F8030A00080047
:102040000FE007FC018E018E01FC01E007000F008C
:1020500008090000FE0FFE0F660C660C660C7E0C75
:10206000DC0780070000090000F801FC070E0E06DF
:102070000C060C0E0E1C0718030000090000FE0FD2
:10208000FE0F060C060C060C0C0EFC07F0010000FF
:10209000090000FE0FFE0F660C660C660C660C66EF
:1020A0000C060C0000090000FE0FFE0F6600660023
:1020B00066006600660006000000090000F801FCEA
:1020C000070E0E060CC60CCE0CDC07D80700000964
:1020D0000000FE0FFE0F6000600060006000FE0F59
:1020E000FE0F0000090000060C060C060CFE0FFE99
:1020F0000F060C060C060C00000800000003000789
:10210000000E060C060CFE07FE03000000000A008D
:1021100000FE0FFE0FE000F000D8018C03060E0257
:102120000C0008090000FE0FFE0F000C000C000C54
:10213000000C000C000C000009FE0FFE0F1E00F842
:1021400000C001F8011E00FE0FFE0F000009000094
:10215000FE0FFE0F1E00F800E003000FFE0FFE0F43
:102160000000090000F803FC070E0E060C060C0E1A
:102170000EFC07F8030000090000FE0FFE0FC6006A
:10218000C600C600EE007C0038000000090000F820
:1021900003FC070E0E061C063C0E6EFC67F863007F
:1021A000000A0000FE0FFE0FC600C600C601E603CF
:1021B0007C0E380C00080900003C023C06660C66E8
:1021C0000CE60CC60CCC07880300000900000600D2
:1021D00006000600FE0FFE0F0600060006000000C7
:1021E000090000FE03FE07000E000C000C000EFEAE
:1021F00007FE0300000A02001E007C00E003000F3F
:10220000000FE0037C001E0002000A0E00FE03F037
:102210000F8007F000E0008007F00FFE030E000AB9
:102220000208060C0E0FB803F001F001B8030E0E01
:10223000060C02080A02000E001E007800E00FE003
:102240000F78001E000E000200090000000C060FAF
:10225000860FC60D760C3E0C1E0C060C0000080006
:102260000000000000FF7FFF7F01400140014000AF
:10227000000000090000010007001E007800E001D6
:102280008007000E00080000070000000001400168
:10229000400140FF7FFF7F000000000000090000B8
:1022A0008000F0003C00060006003C00F0008000CA
:1022B00000000A0020002000200020002000200054
:1022C0002000200020002006000000000000010087
:1022D0000300020000000000000000000A0000A04F
:1022E00007B00FD80CD80CD80CD806F807F00F00A0
:1022F0000C090000FF0FFF0F3006180C180C380EE9
:10230000F007E0030000090000E003F007380E18B2
:102310000C180C180C300620020000090000E00325
:10232000F007380E180C180C3006FF0FFF0F0000D6
:10233000090000E003F007D80ED80CD80CD80CF038
:1023400006E002000009000018001800FE0FFF0F51
:102350001B001B001B001B000000090000E023F015
:1023600067386E186C186C3076F83FF81F0000095B
:102370000000FF0FFF0F3000180018001800F80FC2
:10238000F00F0000090000000C180C180CFB0FFBEC
:102390000F000C000C000C0000070000006018602B
:1023A00018601860FB3FFB1F0000000000000A00DF
:1023B00000FF0FFF0FC000E000E001B003180E089F
:1023C0000C0008090000000C030C030CFF0FFF0FAA
:1023D000000C000C000C0000090000F80FF80F18AA
:1023E00000F80FF00F1800F80FF00F0000090000C0
:1023F000F80FF80F3000180018001800F80FF00F51
:102400000000090000E003F007380E180C180C3823
:102410000EF007E0030000090000F87FF87F3006A7
:10242000180C180C380EF007E0030000090000E05B
:1024300003F007380E180C180C3006F87FF87F00F0
:10244000000900000000F80FF80F30001800180015
:102450001800180000000900007006F806D80CD813
:102460000C980C980DB00F20070000090000180010
:102470001800FC07FE0F180C180C180C180C0000A4
:10248000090000F807F80F000E000C000C0006F819
:102490000FF80F00000A08003800F001C007000E16
:1024A000000EC007F000380008000A3800F80F00DE
:1024B0000F0007E001E0010007800FF8073800096E
:1024C00000000808180E7807E001E0017807180EF0
:1024D000080800000A08003860F0618077003E00BC
:1024E0001C8007F00178000800080000180E180F83
:1024F000980FD80DF80C780C380C0000000009007B
:102500000000008000C001FE3F7F7F0140014001CC
:10251000400000060000000000000000FFFFFFFF79
:102520000000000000000000080000014001400120
:10253000407F7FFE3FC001800000000000090000D6
:10254000C00060006000C000C00080018001C000C9
:102550000000060000FE0F020802080208FE0F003D
:1025600000000000000000000000000000005F000C
:10257000000007000700147F147F14242A7F2A120A
:1025800023130864623649552250000503000000F9
:102590001C2241000041221C0014083E08140808B7
:1025A0003E08080050300000080808080800606075
:1025B000000020100804023E5149453E00427F4081
:1025C0000042615149462141454B311814127F1098
:1025D00027454545393C4A494930017109050336CB
:1025E00049494936064949291E0036360000005639
:1025F000360000081422410014141414140041225F
:1026000014080201510906324979413E7E11111127
:102610007E7F494949363E414141227F4141221C4A
:102620007F494949417F090909013E4149497A7F6A
:102630000808087F00417F41002040413F017F089A
:102640001422417F404040407F020C027F7F0408FB
:10265000107F3E4141413E7F090909063E4151211B
:102660005E7F09192946464949493101017F010127
:102670003F4040403F1F2040201F3F4038403F63C5
:102680001408146307087008076151494543007F27
:1026900041410002040810200041417F0004020172
:1026A00002044040404040000102040020545454C1
:1026B000787F484444383844444420384444487F70
:1026C0003854545418087E0901020C5252523E7F6D
:1026D0000804047800447D40002040443D007F1001
:1026E00028440000417F40007C041804787C0804E2
:1026F000047838444444387C14141408081414181A
:102700007C7C080404084854545420043F4440206E
:102710003C4040207C1C2040201C3C4030403C443D
:10272000281028440C5050503C4464544C44000839
:1027300036410000007F0000004136080010080804
:102740001008000000000000000007000201000067
:10275000030406000000000000000001020408104D
:102760002040800102040810200102040810200407
:102770000404040404040402020202020203030328
:1027800003030300000000230026002900000000CE
:1027900000250028002B0000000000240027002A4C
:1027A00000026319B51C11241FBECFEFD8E0DEBFB5
:1027B000CDBF11E0A0E0B1E0E0EEF3E402C005908F
:1027C0000D92A037B107D9F712E0A0E7B1E001C040
:1027D0001D92A93EB107E1F717E2C6EAD7E204C0AD
:1027E0002297FE010E94EA21C23AD107C9F70E944E
:1027F000DE1E0C941B200C940000FC01E55BFF4FD7
:102800002081DC01ED91FC91211104C00680F7814B
:10281000E02D03C00084F185E02D0994EF920F9321
:10282000FC0180E191E09183808362834383248370
:102830000583E6820F91EF900895FC01E55BFF4F61
:1028400060836230710569F163307105A1F0613018
:102850007105E9F5FC01E45BFF4F27E83DE13183B9
:102860002083FC01E25BFF4F2AE02083FC01E15B57
:10287000FF4F20E110C0FC01E45BFF4F28E630E091
:1028800031832083FC01E25BFF4F27E12083FC01C1
:10289000E15BFF4F28E12083FC01E05BFF4F20E27A
:1028A00015C0FC01E45BFF4F28EA3AE13183208345
:1028B000FC01E25BFF4F20E12083FC01E15BFF4F65
:1028C00028E12083FC01E05BFF4F2BE22083089589
:1028D0000F931F93CF93DF931F92CDB7DEB78C0179
:1028E000FC01848149830E94171B60E0F801868106
:1028F0000E94171B298141E0F801628183810E94B7
:10290000781B61E0F80186810F90DF91CF911F91D4
:102910000F910C94171BCF93DF93EC01862F6F81DF
:102920000E946421292F9987842F90E0688539E3DC
:10293000639F612D1124669570E06F5F7F4F0E9449
:1029400084218A87422F406860E0CE010E9468148B
:102950004A85406460E0CE01DF91CF910C94681409
:102960000F931F93CF93DF93EC0140E060E00E9450
:102970008B1400E010E09F8188858695869586956A
:10298000989FC001112440E00817190738F461E04E
:10299000CE010E9468140F5F1F4FEDCF60E0CE01A3
:1029A000DF91CF911F910F910C948B140F931F9374
:1029B000CF93DF931F92CDB7DEB78C01DC01179662
:1029C0006C93179718964C93189719961C92199711
:1029D0001A961C92FC013B9680E4DF011D928A95B9
:1029E000E9F761E0F801828129830E94F71A61E02A
:1029F000D80113968C910E94F71A61E0F801848146
:102A00000E94F71A61E0D80115968C910E94F71A7E
:102A100061E0F80186810E94F71A61E0D8011596FD
:102A20008C910E94171B61E0F80186810E94171BA0
:102A300060E0D80115968C910E94171B64E670E047
:102A400080E090E00E94451A61E0F80185810E94D3
:102A5000171B41E260E0C8010E94681443E160E096
:102A6000C8010E9468142981213039F440EE60E0E9
:102A7000C8010E94681445E001C042EC60E0C80152
:102A80000E94681440E260E0C8010E94681449E0B6
:102A900060E0C8010E946814C8010E94B01448E0B8
:102AA00060E0C8010E9468144CE060E0C8010E9428
:102AB000681464E670E080E090E00E94451A40E807
:102AC00060E0C8010E94681440E460E0C8010F9013
:102AD000DF91CF911F910F910C9468144F925F92E8
:102AE0006F927F928F929F92AF92BF92CF92DF921E
:102AF000EF92FF920F931F93CF93DF93EC01FC01B2
:102B0000E15BFF4F7080769476947694FC01E25BF3
:102B1000FF4F8081FE01E45BFF4FDE01A05BBF4FF2
:102B20009C91691B789EC00111240196689F9001B9
:102B3000699F300D112400811181020F131FF801CC
:102B40005490612CC72CD12C4A85671439F1460D5D
:102B5000406460E0CE010E946814E12CF12C412C0D
:102B6000A62CB12C47018C0C9D1C4514A9F049855D
:102B7000440D406860E0CE010E946814F701319670
:102B8000E00FF11FEA0DFB1D449161E0CE010E94B0
:102B9000681443947401E6CF6394D6CF406460E038
:102BA000CE010E9468142985852D90E0820F911D29
:102BB0006F8170E00E9484218987482F406860E01F
:102BC000CE01DF91CF911F910F91FF90EF90DF9099
:102BD000CF90BF90AF909F908F907F906F905F90BD
:102BE0004F900C946814DF92EF92FF920F931F9313
:102BF000CF93DF9300D000D01F92CDB7DEB78C010A
:102C000067FD4EC0E62FF0E0603260F0B09785E0DF
:102C10008E9FB0018F9F700D112469597A4D45E048
:102C200050E00CC0EE0FFF1FE00FF11F838594856D
:102C3000009751F445E050E067E675E2CE01019659
:102C40000E941E20CE0101967C01D12CF7014191FA
:102C50007F0161E0C8010E946814D394F5E0DF129F
:102C6000F5CF40E061E0C8010E946814F801818559
:102C700090E00696678170E00E9484218187892B0D
:102C800079F4828590E00196608529E3629F612D49
:102C90001124669570E06F5F7F4F0E9484218287C8
:102CA0000F900F900F900F900F90DF91CF911F9189
:102CB0000F91FF90EF90DF900895AF92BF92CF9267
:102CC000DF92EF92FF920F931F938EE00E94B11A52
:102CD000BC01882777FD8095982F1F921F921F9225
:102CE0002CE32F93A12CB12C6501A394EE24EA943C
:102CF00013E0F12E00E010E020E030E0A9010E9496
:102D0000971E0F900F900F900F90CB011F910F9176
:102D1000FF90EF90DF90CF90BF90AF90089563E069
:102D200070E081E891E00E941D1443E060E081E8DA
:102D300091E00E948B1460917D0170917E014AE0C8
:102D400050E081E891E00E94FE1D6BE471E081E8B3
:102D500091E00C942E1D0E94161A6054784D864FF7
:102D60009F4F6093700170937101809372019093F3
:102D7000730108950F931F93CF93DF938C01C0E0ED
:102D8000D0E0C017D10791F060E082E00E94171BED
:102D90008AEF90E00E946B1A61E082E00E94171BAC
:102DA0008AEF90E00E946B1A2196EBCF809175011B
:102DB0009091760120917F0130918001232B19F0B1
:102DC000D195C195D109C80FD91FD0937601C09371
:102DD0007501DF91CF911F910F910C94AB168091EB
:102DE0007401992787FD909597FF03C09195819570
:102DF000910920917D0130917E018217930711F492
:102E00001092740108950E945D161816190614F0A8
:102E100081E090E090937E0180937D0160917D013F
:102E200070917E01882777FD8095982F0E94BD20A4
:102E30009B01AC016FEF7FEF87EC94E40E942720A9
:102E40000E948F2070937C0160937B010C948F16FD
:102E500040E855E260E070E08FED91E00E945A1C7E
:102E600061E084E00E94F71A61E082E00E94F71AB4
:102E700061E083E00E94F71A60E08AE00E94F71A9E
:102E800060E08BE00E94F71A60E08CE00E94F71A85
:102E900060E08EE00E94F71A61E08AE00E94171B52
:102EA00061E08BE00E94171B61E08CE00E94171B21
:102EB00020E040E364E581E891E00E94D61461E0FF
:102EC00070E081E891E00E941D1440E061E181E83A
:102ED00091E00E948B146AE171E081E891E00E9428
:102EE0002E1D42E06CE081E891E00E948B1461E2CB
:102EF00071E081E891E00E942E1D60E070E081E8C1
:102F000091E00E941D1444E067E081E891E00E9496
:102F10008B1469E271E081E891E00E942E1D45E08A
:102F20006EE081E891E00E948B1466E371E081E835
:102F300091E00E942E1D60ED77E080E090E00E941D
:102F4000451A60E070E081E891E00E941D1444E0C1
:102F500067E081E891E00E948B1461E471E081E810
:102F600091E00E942E1D45E06CE081E891E00E9416
:102F70008B146EE471E081E891E00E942E1D67E5FC
:102F800071E081E891E00E942E1D60ED77E080E025
:102F900090E00E94451A1092800110927F0161E03A
:102FA00084E00E94171B60917F0183E00E94171B41
:102FB00010927701109278011092790110927A01A3
:102FC000109276011092750181E891E00E94B01490
:102FD00081E090E090937E0180937D010E94031731
:102FE00080EC97E2A9E0B0E08093700190937101CA
:102FF000A0937201B09373010895CF92DF92EF9284
:10300000FF920E94161AC0907701D0907801E0904C
:103010007901F0907A01C616D706E806F90608F09D
:103020005BC00E948F1662E070E081E891E00E9430
:103030001D1440E060E081E891E00E948B146091F3
:103040007401772767FD70954AE050E081E891E0D0
:103050000E94FE1D63E070E081E891E00E941D1473
:103060006BE571E081E891E00E942E1D62E070E066
:1030700081E891E00E941D1480917401992787FDD9
:10308000909597FF03C091958195910960917D017D
:1030900070917E01681B790B4AE050E081E891E075
:1030A0000E94FE1D63E070E081E891E00E941D1423
:1030B0006BE471E081E891E00E942E1D0E94161AD7
:1030C0006C507E4F8F4F9F4F6093770170937801C4
:1030D0008093790190937A018AE00E944F1B892B9B
:1030E00009F055C01092800110927F0160E083E0EA
:1030F0000E94171B80917B0190917C010E94BA165F
:10310000809174018150809374010E94161A6B01A2
:103110007C0188EEC80E83E0D81EE11CF11C8AE019
:103120000E944F1B892B99F40E94161AC616D706C7
:10313000E806F906A0F780917B0190917C010E943E
:10314000BA1680917401815080937401E8CF0E9477
:10315000161AC616D706E806F90688F48091740197
:10316000992787FD909560917D0170917E010E9465
:1031700084218093740181E891E00E94B01464E698
:1031800070E080E090E00E94451A0E94EF168BE00C
:103190000E944F1B892BF1F4109276011092750159
:1031A0001092740160E084E00E94171B8BE00E9483
:1031B0004F1B892B19F40E940317F8CF61E084E0BC
:1031C0000E94171B0E94AB1664E670E080E090E05E
:1031D0000E94451A8CE00E944F1B892B09F057C0B2
:1031E00081E090E09093800180937F0161E083E033
:1031F0000E94171B80917B0190917C010E94BA165E
:10320000809174018F5F809374010E94161A6B0184
:103210007C0188EEC80E83E0D81EE11CF11C8CE016
:103220000E944F1B892B99F40E94161AC616D706C6
:10323000E806F906A0F780917B0190917C010E943D
:10324000BA16809174018F5F80937401E8CF0E9459
:10325000161AC616D706E806F90688F48091740196
:10326000992787FD909560917D0170917E010E9464
:1032700084218093740181E891E00E94B01464E697
:1032800070E080E090E00E94451A0E94EF160E94D4
:10329000161AC0907001D0907101E0907201F09008
:1032A0007301C616D706E806F90640F460E084E02C
:1032B000FF90EF90DF90CF900C94171BFF90EF9052
:1032C000DF90CF900895EF920F9345E0E42E06E053
:1032D00027E048E069E081E891E00E940E140F9138
:1032E000EF9008951F920F920FB60F9211242F9313
:1032F0003F934F935F936F937F938F939F93AF937E
:10330000BF93EF93FF938091D2019091D301892BCA
:1033100029F0E091D201F091D3010995FF91EF914D
:10332000BF91AF919F918F917F916F915F914F91DD
:103330003F912F910F900FBE0F901F9018951F92E5
:103340000F920FB60F9211242F933F934F935F93D9
:103350006F937F938F939F93AF93BF93EF93FF935D
:103360008091D4019091D501892B29F0E091D4016D
:10337000F091D5010995FF91EF91BF91AF919F9188
:103380008F917F916F915F914F913F912F910F900E
:103390000FBE0F901F9018951F920F920FB60F92AD
:1033A00011242F933F938F939F93AF93BF9380915B
:1033B000D7019091D801A091D901B091DA01309153
:1033C000D60123E0230F2D3720F40196A11DB11D56
:1033D00005C026E8230F0296A11DB11D2093D6013A
:1033E0008093D7019093D801A093D901B093DA01CB
:1033F0008091DB019091DC01A091DD01B091DE01B3
:103400000196A11DB11D8093DB019093DC01A09377
:10341000DD01B093DE01BF91AF919F918F913F91FC
:103420002F910F900FBE0F901F9018952FB7F89403
:103430006091D7017091D8018091D9019091DA0102
:103440002FBF08953FB7F8948091DB019091DC0184
:10345000A091DD01B091DE0126B5A89B05C02F3FEC
:1034600019F00196A11DB11D3FBF6627782F892F46
:103470009A2F620F711D811D911D42E0660F771F0B
:10348000881F991F4A95D1F70895CF92DF92EF9246
:10349000FF92CF93DF936B017C010E94221AEB0114
:1034A000C114D104E104F10479F00E94221A6C1BCA
:1034B0007D0B683E7340A0F381E0C81AD108E10893
:1034C000F108C851DC4FECCFDF91CF91FF90EF9026
:1034D000DF90CF9008950197009739F0880F991FDA
:1034E000880F991F02970197F1F70895789484B592
:1034F000826084BD84B5816084BD85B5826085BDF0
:1035000085B5816085BDEEE6F0E0808181608083D5
:10351000E1E8F0E0108280818260808380818160B8
:103520008083E0E8F0E0808181608083E1EBF0E07F
:10353000808184608083E0EBF0E080818160808323
:10354000EAE7F0E08081846080838081826080830C
:103550008081816080838081806880831092C10037
:1035600008958E3008F08E50877020910A0190E403
:10357000299F90011124822B80937C0080917A00F6
:10358000806480937A0080917A0086FDFCCF8091E0
:1035900078002091790090E0922B0895833081F09B
:1035A00028F4813099F08230A1F008958630A9F096
:1035B0008730B9F08430D1F4809180008F7D03C0D2
:1035C000809180008F7780938000089584B58F77F5
:1035D00002C084B58F7D84BD08958091B0008F773F
:1035E00003C08091B0008F7D8093B000089590E07B
:1035F000FC01E55AF84D2491FC01E159F84DE491A4
:10360000EE23A1F0F0E0EE0FFF1FE956F84DA59173
:10361000B4919FB7611105C0F8948C9120958223D5
:1036200003C0F8948C91822B8C939FBF08950F93C5
:103630001F93CF93DF931F92CDB7DEB7282F30E0D3
:10364000F901E95BF84D8491F901E55AF84D1491BF
:10365000F901E159F84D04910023D9F0882321F0B4
:1036600069830E94CE1A6981E02FF0E0EE0FFF1F00
:10367000E357F84DA591B4919FB7611105C0F89437
:103680008C911095812303C0F8948C91812B8C939D
:103690009FBF0F90DF91CF911F910F910895CF930E
:1036A000DF93282F30E0F901E95BF84D8491F901AF
:1036B000E55AF84DD491F901E159F84DC491CC2364
:1036C00091F081110E94CE1AEC2FF0E0EE0FFF1F57
:1036D000ED57F84DA591B4912C912D2381E090E008
:1036E00021F480E002C080E090E0DF91CF91089566
:1036F000BF92CF92DF92EF92FF920F931F93CF93DF
:10370000DF93C82ED62EB42EC7E0D0E0022F10E0F3
:1037100087E0E82EF12CB1100AC0F701EC1BFD0B7D
:10372000B80102C075956795EA95E2F707C0B80140
:103730000C2E02C0759567950A94E2F761707727A1
:103740008C2D0E94171B61E08D2D0E94171B60E0DD
:103750008D2D0E94171B2197F0F6DF91CF911F91BD
:103760000F91FF90EF90DF90CF90BF900895FC01F4
:1037700022813381F901E058FF4F80819181F90165
:10378000EE57FF4F20813181821B930B8F77992752
:103790000895FC0182819381FC01EE57FF4F208147
:1037A0003181FC01E058FF4F40815181421753079E
:1037B00031F0FC01E20FF31F808190E008958FEF5C
:1037C0009FEF0895FC0182819381FC01EE57FF4F2A
:1037D00020813181DC01A058BF4F4D915C9142178F
:1037E000530761F0DC01A20FB31F8C912F5F3F4F95
:1037F0002F7733273183208390E008958FEF9FEF59
:103800000895FC0182819381FC01E058FF4FDC01A7
:10381000AE57BF4F8D919C91918380830895FC0199
:10382000A085B18521E030E0018802C0220F331F5E
:103830000A94E2F78C9190E082239323892BD1F3B1
:103840000484F585E02D608308951F920F920FB6D2
:103850000F9211242F933F934F935F936F938F9306
:103860009F93EF93FF936091C60020917202309175
:103870007302C90101968F77992740917402509184
:1038800075028417950741F0F901EE50FE4F6083F1
:103890009093730280937202FF91EF919F918F91A9
:1038A0006F915F914F913F912F910F900FBE0F90AD
:1038B0001F901895CF93DF93EC019A01AB01E88537
:1038C000F985211581EE38074105510509F449C0F4
:1038D00081E090E00A8802C0880F991F0A94E2F7FD
:1038E000808360E079E08DE390E00E94BA2121506E
:1038F000310941095109CA01B90122E030E040E033
:1039000050E00E94BA21EC81FD813083EE81FF817D
:103910002083EA85FB85408181E090E09C010E8454
:1039200002C0220F331F0A94E2F7422B4083EA853C
:10393000FB8540819C010F8402C0220F331F0A9433
:10394000E2F7422B4083EA85FB852081088802C08C
:10395000880F991F0A94E2F7282B2083DF91CF91DB
:103960000895108220E130E0CECF81E691E090937F
:10397000E0018093DF0182EF91E09093E201809378
:10398000E10185EC90E09093E4018093E30184EC05
:1039900090E09093E6018093E50180EC90E09093B5
:1039A000E8018093E70181EC90E09093EA01809335
:1039B000E90186EC90E09093EC018093EB0184E0C8
:1039C0008093ED0183E08093EE0187E08093EF0127
:1039D00085E08093F00181E08093F10108950F93D9
:1039E0001F93CF93DF93EC018B01F80161918F015D
:1039F000662341F0E881F9810190F081E02DCE014C
:103A00000995F3CFDF91CF911F910F910895EF9218
:103A1000FF920F931F93CF93DF937C018A01EB01F9
:103A2000060F171FC017D10751F06991D701ED910B
:103A3000FC910190F081E02DC7010995F3CFDF9152
:103A4000CF911F910F91FF90EF900895DC01ED91C0
:103A5000FC910190F081E02D642F0994DC01ED913F
:103A6000FC910280F381E02D09944F925F926F9256
:103A70007F928F929F92AF92BF92CF92DF92EF92FE
:103A8000FF920F931F93CF93DF93CDB7DEB7A0972D
:103A90000FB6F894DEBF0FBECDBF5C0141155105D6
:103AA00061057105E1F440E350E060E070E0A0964C
:103AB0000FB6F894DEBF0FBECDBFDF91CF911F913F
:103AC0000F91FF90EF90DF90CF90BF90AF909F90BD
:103AD0008F907F906F905F904F900C94261D8E0179
:103AE0000F5F1F4FC12CD12C76014801422E512C63
:103AF000612C712C8FEFC81AD80AE80AF80ACB019A
:103B0000BA01A30192010E949821CA01F8016193B0
:103B10008F01A901BC01411551056105710551F7DE
:103B2000F1E0CF1AD108E108F108F401EC0DFD1D18
:103B300080818A3010F440E301C047E3480F5527E5
:103B400047FD5095652F752FC5010E94261D81E008
:103B5000C81AD108E108F108EFEFCE16DE06EE062E
:103B6000FE0619F7A0960FB6F894DEBF0FBECDBFC4
:103B7000DF91CF911F910F91FF90EF90DF90CF9049
:103B8000BF90AF909F908F907F906F905F904F907D
:103B90000895CF92DF92EF92FF92CF93DF93EC01E3
:103BA0006A017B012115310541F4DF91CF91FF902E
:103BB000EF90DF90CF900C94261D2A30310599F4B8
:103BC00077FF10C020E030E04DE250E060E070E0B0
:103BD0000E94C91DF094E094D094C094C11CD11CE3
:103BE000E11CF11C2AE0B701A601CE01DF91CF91C3
:103BF000FF90EF90DF90CF900C94351D9A01AB01B0
:103C0000662757FD6095762F0C94C91D813039F0D9
:103C100018F0823051F0089510926E00089580914E
:103C20006F008D7F80936F000895809170008D7F6D
:103C30008093700081E08093B0008091B100887F14
:103C400084608093B1001092B3000895CF93C82F81
:103C500080910B018C1307C0E1EAF7E284919FEF9A
:103C600090930B0101C08FEF0E94061E60E08C2F25
:103C7000CF910C94171B1F920F920FB60F92112425
:103C80002F933F934F935F936F937F938F939F9364
:103C9000AF93BF93EF93FF938091790290917A0253
:103CA000A0917B02B0917C02892B8A2B8B2B51F146
:103CB00090917602E0917702F091780280818927D5
:103CC00080838091790290917A02A0917B02B091D9
:103CD0007C02181619061A061B06C4F48091790294
:103CE00090917A02A0917B02B0917C020197A10988
:103CF000B1098093790290937A02A0937B02B093EA
:103D00007C0204C080910B010E94261EFF91EF915E
:103D1000BF91AF919F918F917F916F915F914F91E3
:103D20003F912F910F900FBE0F901F9018954F92BB
:103D30005F926F927F92AF92BF92CF92DF92EF929B
:103D4000FF920F931F93CF93DF93CDB7DEB7290177
:103D50003A01621B730B840B950B29893A894B89B5
:103D60005C892A193B094C095D09298B3A8B4B8BDD
:103D70005C8B9B01AC0169897A898B899C890E9443
:103D80005421E418F50806091709A80197010E94B3
:103D9000BA212A0D3B1D4C1D5D1DCA01B901DF91E1
:103DA000CF911F910F91FF90EF90DF90CF90BF9038
:103DB000AF907F906F905F904F9008950E94761A19
:103DC0000E9428170E94FD17FDCF85ED8093BC004F
:103DD0008091BC0084FDFCCF1092E802089585EC30
:103DE0008093BC001092E80208951F920F920FB6C4
:103DF0000F9211242F933F934F935F936F937F9371
:103E00008F939F93AF93BF93EF93FF938091B900EC
:103E1000887F803609F495C068F5883209F45BC064
:103E200090F4803109F454C038F4882309F4EEC0CA
:103E3000883009F44DC0EEC0883109F44CC080329E
:103E400009F45EC0E7C0803409F469C048F48033E7
:103E500009F456C0883309F0DDC080937D02A1C00B
:103E6000803509F450C0883509F45EC0883409F003
:103E7000D1C0CEC0883909F4BFC0A8F4883709F48E
:103E800060C038F4883609F45CC0803709F459C042
:103E9000C1C0883809F4B0C0803909F458C08038EE
:103EA00009F0B8C054C0803B09F47EC038F4803AB1
:103EB00009F45FC0883A09F477C0ACC0803C09F4CB
:103EC0009FC0883C09F49CC0883B09F482C0A2C012
:103ED0008091E70211C09091C2028091C1029817AF
:103EE00008F096C0E091C20281E08E0F8093C2027A
:103EF000F0E0ED53FD4F80818093BB0085EC7DC0E9
:103F000080937D0285C0E091C20281E08E0F809394
:103F1000C2028091BB00F0E0ED53FD4F8083909191
:103F2000C2028091C10265C0E091C20281E08E0FA1
:103F30008093C2028091BB00F0E0ED53FD4F80837F
:103F400067C083E08093E80210927E02D7CF809111
:103F50007E02803208F050C0E0917E0281E08E0F38
:103F600080937E028091BB00F0E0E158FD4F80839A
:103F7000C5CF80917E02803230F4E0917E02F0E085
:103F8000E158FD4F10820E94E51E60917E0270E0B4
:103F9000E091E302F091E4028FE792E0099510923C
:103FA0007E020E94EF1E36C084E08093E8021092E9
:103FB000A00210929F02E091E502F091E6020995BD
:103FC00080919F02811105C081E080939F02109231
:103FD000A102E091A00281E08E0F8093A002F0E0A8
:103FE000EF55FD4F80818093BB009091A00280919E
:103FF0009F02981708F482CF85E88093BC000AC01E
:1040000085EC8093BC001092E80204C010927D02FF
:104010000E94E51EFF91EF91BF91AF919F918F910B
:104020007F916F915F914F913F912F910F900FBEB4
:104030000F901F901895F8940C94EE21FB01DC0171
:1040400002C005900D9241505040D8F708950CD011
:10405000E6C0DED040F0D5D030F021F45F3F19F05B
:10406000C7C0511110C1CAC0EBD098F39923C9F34E
:104070005523B1F3951B550BBB27AA27621773076E
:10408000840738F09F5F5F4F220F331F441FAA1F22
:10409000A9F333D00E2E3AF0E0E830D091505040E2
:1040A000E695001CCAF729D0FE2F27D0660F771F90
:1040B000881FBB1F261737074807AB07B0E809F072
:1040C000BB0B802DBF01FF2793585F4F2AF09E3F07
:1040D000510568F08DC0D7C05F3FECF3983EDCF32C
:1040E000869577956795B795F7959F5FC9F7880F80
:1040F000911D9695879597F90895E1E0660F771FD2
:10410000881FBB1F621773078407BA0720F0621B62
:10411000730B840BBA0BEE1F88F7E095089598D0C7
:1041200088F09F5790F0B92F9927B751A0F0D1F0A0
:10413000660F771F881F991F1AF0BA95C9F712C02A
:10414000B13081F09FD0B1E008959CC0672F782FE7
:104150008827B85F39F0B93FCCF386957795679596
:10416000B395D9F73EF490958095709561957F4F02
:104170008F4F9F4F0895E89409C097FB3EF49095A8
:104180008095709561957F4F8F4F9F4F9923A9F030
:10419000F92F96E9BB279395F695879577956795BF
:1041A000B795F111F8CFFAF4BB0F11F460FF1BC003
:1041B0006F5F7F4F8F4F9F4F16C0882311F096E996
:1041C00011C0772321F09EE8872F762F05C0662344
:1041D00071F096E8862F70E060E02AF09A95660FFD
:1041E000771F881FDAF7880F9695879597F90895B6
:1041F00097F99F6780E870E060E008959FEF80EC9A
:10420000089500240A94161617061806090608953C
:1042100000240A9412161306140605060895092EA2
:104220000394000C11F4882352F0BB0F40F4BF2B11
:1042300011F460FF04C06F5F7F4F8F4F9F4F089551
:1042400057FD9058440F551F59F05F3F71F0479547
:10425000880F97FB991F61F09F3F79F0879508952C
:10426000121613061406551FF2CF4695F1DF08C04B
:10427000161617061806991FF1CF86957105610568
:1042800008940895E894BB2766277727CB0197F910
:1042900008950E94D921A59F900DB49F900DA49FD1
:1042A000800D911D11240895DB018F939F930E942F
:1042B0004921BF91AF91A29F800D911DA39F900DA9
:1042C000B29F900D11240895991B79E004C0991FA5
:1042D000961708F0961B881F7A95C9F78095089560
:1042E000AA1BBB1B51E107C0AA1FBB1FA617B7071C
:1042F00010F0A61BB70B881F991F5A95A9F7809538
:104300009095BC01CD01089597FB072E16F40094FB
:1043100007D077FD09D00E94702107FC05D03EF43C
:10432000909581959F4F0895709561957F4F089561
:10433000A1E21A2EAA1BBB1BFD010DC0AA1FBB1FA9
:10434000EE1FFF1FA217B307E407F50720F0A21B1B
:10435000B30BE40BF50B661F771F881F991F1A9488
:1043600069F760957095809590959B01AC01BD01B2
:10437000CF010895052E97FB1EF400940E94D121D1
:1043800057FD07D00E94982107FC03D04EF40C94EF
:10439000D12150954095309521953F4F4F4F5F4F1C
:1043A000089590958095709561957F4F8F4F9F4FA1
:1043B0000895A29FB001B39FC001A39F700D811DFE
:1043C0001124911DB29F700D811D1124911D08951E
:1043D000EE0FFF1F0590F491E02D0994F894FFCFA4
:1043E0000000E90220000100000001FF00000000C1
:1043F000FD13EF1C071DF3156E15416C66616E6FA2
:10440000005370696E646C650044657369676E651E
:104410006420666F72004A6F7368204B6C696E652A
:104420000020204669726D77617265202000566514
:104430007273696F6E2000302E31002F0000000073
:10444000000F1CEF1C071DB71BE21BC91B011C0042
:00000001FF
